MISC
*estimate_fee*
https://www.bitgo.com/api/v1/tx/fee?numBlocks=1



BLOCKTRAIL:            
https://api.blocktrail.com/v1/{network}
https://api.blocktrail.com/v1/tBTC

c9b73416bb6aa919279be908e9f0f0f978288c85 aad1b2aa168d93d95d344c919af30ed5f83848d6

"https://api.blocktrail.com/v1/btc/address/1NcXPMRaanz43b1kokpPuYDdk6GGDvxT2T?api_key=5174b5c1e4af23e44d4f62332b3c2ef586af0ab9"        # MUST USE API CODE! >:|




from __future__ import print_function
import blocktrail

client = blocktrail.APIClient(api_key="MY_APIKEY", api_secret="MY_APISECRET", network="BTC", testnet=False)

wallet, primary_mnemonic, backup_mnemonic, blocktrail_public_keys = client.create_new_wallet("mywallet", "mypass") 

~~~~~~~
CHAIN.COM

API_KEY, API_SECRET =  "73d2d3bde0f187effc8178374eac0814",  "502e861d08faaebdf743b8a6cc2b36b9"
https://73d2d3bde0f187effc8178374eac0814:502e861d08faaebdf743b8a6cc2b36b9@api.chain.com/v2/bitcoin/blocks/308920/op-returns




~~~~~~~~~~~
BLOCKSTRAP


http://api.blockstrap.com/v0/<NETWORK>/block/id/<BLOCKHASH>
TESTNET = btct

tx params:   ?showtxn=1 ?showtxnio=1
addr params: records=500, skip=1000 

Block	         http://api.blockstrap.com/v0/btct/block/id/<BLOCKHASH>	None
Block Latest	    http://api.blockstrap.com/v0/btct/block/latest	None
Blocks Latest	    http://api.blockstrap.com/v0/btct/block/latest/<INT_COUNT>	Max 10
Block Height	    http://api.blockstrap.com/v0/btct/block/height/<INT_HEIGHT>	None
Transaction	    http://api.blockstrap.com/v0/btct/transaction/id/<TXN_ID>	None
Trans Decode	    http://api.blockstrap.com/v0/btct/transaction/decode/<TXN_HEX>	None
    GET http://api.blockstrap.com/v0/btct/transaction/decode/
    POST http://api.blockstrap.com/v0/btct/transaction/decode
    txn_hex=<TRANSACTION_HEX>

Transact'n Relay  http://api.blockstrap.com/v0/btct/transaction/relay/<TXN_Relay>	None
Address	         http://api.blockstrap.com/v0/btct/address/id/<ADDRESS>	None
Addresses	         http://api.blockstrap.com/v0/btct/address/ids/<ADDRESS>,<ADDRESS>	None
Address Txs	    http://api.blockstrap.com/v0/btct/address/transactions/<ADDRESS>	None
Address Unspents. http://api.blockstrap.com/v0/btct/address/unspents/<ADDRESS>


BLOCKCYPHER

https://api.blockcypher.com/v1/btc/test3/addrs/$ADDR
 unspentOnly=true
 includeScript=true
 before=123456
 limit=50
 confirmations=0

https://api.blockcypher.com/v1/btc/test3/addrs/$ADDR/full
 before=123456
 limit=50
 confirmations=0
 includesHex=true

https://api.blockcypher.com/v1/btc/test3/addrs/n1hjyVvYQPQtejJcANd5ZJM5rmxHCCgWL7;n2kx7k6JuA5Wy27fawaeiPX7dq8mbRDPAv?limit=50&confirmations=0&unspentOnly=true

http://api.blockcypher.com/v1/btc/main/txs/e0fc705fb383245a4bf32ca3318cfc8e041f73551a238329a24f31f4fe277c40?limit=50

MEMPOOL
http://api.blockcypher.com/v1/btc/main/txs?limit=50

BLOCKCHAIN GENERAL INFO
http://api.blockcypher.com/v1/btc/main/


DECODE
http://api.blockcypher.com/v1/btc/main/txs/decode
{"tx":"0100000001d963f3a764242f1ef88243154ffb34aa6ae715e3a3d02c6a586598ed33d51894010000006a473044022025f1ddf55a1cac58a8165aa7383d97ca832d415fe9f184268f3217eff5e8b2710220710477bc2a149c0533422090826dd36d59704962069a284a0f854363289613700121033b9de0249490eed5cdb2416e7fff616eb01f8ccf262e6ab14898b59f300a0bbbffffffff0100710200000000001976a914bc96fc2030ca978f0242601834f391f9a6e8f31888ac00000000"}

PUSH
http://api.blockcypher.com/v1/btc/main/txs/push
{"tx":"0100000001d963f3a764242f1ef88243154ffb34aa6ae715e3a3d02c6a586598ed33d51894010000006a473044022025f1ddf55a1cac58a8165aa7383d97ca832d415fe9f184268f3217eff5e8b2710220710477bc2a149c0533422090826dd36d59704962069a284a0f854363289613700121033b9de0249490eed5cdb2416e7fff616eb01f8ccf262e6ab14898b59f300a0bbbffffffff0100710200000000001976a914bc96fc2030ca978f0242601834f391f9a6e8f31888ac00000000"}

GENERATE N-of-M
http://api.blockcypher.com/v1/btc/main/addrs
{"pubkeys": ["04484fe36bfe01eed3442c6ab47e050d463b7d73180d64c7d06148c7425dfe2d8461b241bf647120e25d1a732b9423373b0497e0cd45300ab0ee51c3818e6ac67e", "02484fe36bfe01eed3442c6ab47e050d463b7d73180d64c7d06148c7425dfe2d84"], "script_type": "multisig-2-of-2"}


MAKE NEW TX
http://api.blockcypher.com/v1/btc/main/txs/new
==> http://dev.blockcypher.com/#generic_transactions

http://api.blockcypher.com/v1/btc/main/txs/new?includeToSignTx=true
POST_DATA = {"inputs": [{"addresses": ["1JCAugEs1ETUKRXMBpxeCPERS6xPymP3ZM"]}], "confirmations": 0, "change_address": "1JCAugEs1ETUKRXMBpxeCPERS6xPymP3ZM", "preference": "high", "outputs": [{"addresses": ["1Ae4qudMZEj6raDKwUgLsFriBMmqyMMx4c"], "value": 33333}]}

{
  "tx": {
    "block_height": -1,
    "block_index": 0,
    "hash": "00a00cbfeb0f8612b96877d67a35330774f59ee9c8b96d7bbae39d2841924948",
    "addresses": [
      "1Ae4qudMZEj6raDKwUgLsFriBMmqyMMx4c",
      "1JCAugEs1ETUKRXMBpxeCPERS6xPymP3ZM"
    ],
    "total": 100487500,
    "fees": 12500,
    "size": 119,
    "preference": "high",
    "relayed_by": "120.21.11.196, 127.0.0.1",
    "received": "2015-11-14T04:02:45.140112151Z",
    "ver": 1,
    "lock_time": 0,
    "double_spend": false,
    "vin_sz": 1,
    "vout_sz": 2,
    "confirmations": 0,
    "confidence": 0,
    "inputs": [
      {
        "prev_hash": "9418d533ed9865586a2cd0a3e315e76aaa34fb4f154382f81e2f2464a7f363d9",
        "output_index": 0,
        "script": "",
        "output_value": 100500000,
        "sequence": 4294967295,
        "addresses": [
          "1JCAugEs1ETUKRXMBpxeCPERS6xPymP3ZM"
        ],
        "script_type": "",
        "age": 127264
      }
    ],
    "outputs": [
      {
        "value": 33333,
        "script": "76a91469bbbb16301e40b9fb67130e1aa53a2281d60af088ac",
        "addresses": [
          "1Ae4qudMZEj6raDKwUgLsFriBMmqyMMx4c"
        ],
        "script_type": "pay-to-pubkey-hash"
      },
      {
        "value": 100454167,
        "script": "76a914bc96fc2030ca978f0242601834f391f9a6e8f31888ac",
        "addresses": [
          "1JCAugEs1ETUKRXMBpxeCPERS6xPymP3ZM"
        ],
        "script_type": "pay-to-pubkey-hash"
      }
    ]
  },
  "tosign_tx": [
    "0100000001d963f3a764242f1ef88243154ffb34aa6ae715e3a3d02c6a586598ed33d51894000000001976a914bc96fc2030ca978f0242601834f391f9a6e8f31888acffffffff0235820000000000001976a91469bbbb16301e40b9fb67130e1aa53a2281d60af088ac17cffc05000000001976a914bc96fc2030ca978f0242601834f391f9a6e8f31888ac0000000001000000"
  ],
  "tosign": [
    "dec6b2d9fcec5cac75c377625bcb6fac5b5e09d0d3306c9887a9acc1d296574e"
  ]
}
